{
  "contractName": "Termination2",
  "abi": [
    {
      "anonymous": false,
      "inputs": [],
      "name": "BalanceIsEmpty",
      "type": "event"
    },
    {
      "anonymous": false,
      "inputs": [
        {
          "indexed": false,
          "internalType": "string",
          "name": "f",
          "type": "string"
        }
      ],
      "name": "FunctionCalled",
      "type": "event"
    },
    {
      "inputs": [
        {
          "internalType": "uint256",
          "name": "x",
          "type": "uint256"
        }
      ],
      "name": "assignBeforeTermination",
      "outputs": [],
      "stateMutability": "nonpayable",
      "type": "function"
    },
    {
      "inputs": [
        {
          "internalType": "uint256",
          "name": "x",
          "type": "uint256"
        }
      ],
      "name": "f1",
      "outputs": [
        {
          "internalType": "bool",
          "name": "",
          "type": "bool"
        }
      ],
      "stateMutability": "pure",
      "type": "function",
      "constant": true
    }
  ],
  "bytecode": "0x6080806040523461001657610148908161001c8239f35b600080fdfe6080604052600436101561001257600080fd5b6000803560e01c806319679c441461005157639adbf6911461003357600080fd5b3461004e576020600a6100453661006d565b11604051908152f35b80fd5b503461004e576100686100633661006d565b610084565b604051f35b602090600319011261007f5760043590565b600080fd5b600a6001917fac7c932dfed5a12f8cee69b87b1db28759f9abab0760d37031670980a55a2168606060405160208152601760208201527f61737369676e4265666f72655465726d696e6174696f6e0000000000000000006040820152a11114610110577f757587e61c9ea391fd556c0cd9b59fb64ea23c21c63e92a104fac409fed380356000604051a1565b56fea26469706673582212209a4dc47c378dcc36c2f8a7df2d41aa4fcf0ce8f8c58ca5313840416f5243be0064736f6c634300080e0033",
  "immutableReferences": {},
  "source": "// SPDX-License-Identifier: MIT\npragma solidity ^0.8.14;\n\ncontract Termination2 {\n    uint persistent_var;\n    event FunctionCalled(string f);\n    event BalanceIsEmpty();\n\n    function assignBeforeTermination(uint x) public {\n        emit FunctionCalled(\"assignBeforeTermination\");\n        uint balance;\n        \n        if (f1(x) == true) {\n            balance = 10007;\n            return;\n        }\n\n        if (balance == 0) {\n            emit BalanceIsEmpty();\n        }\n        return;\n    }\n\n    function f1(uint x) public pure returns (bool) {\n        return x > 10;\n    }\n}\n",
  "sourcePath": "/Users/sergiuiacob/solidity-optimization-with-control-flow-graphs/truffle-project/contracts/termination2.sol",
  "compiler": {
    "name": "solc",
    "version": "0.8.14+commit.503dde7e.mod.Darwin.appleclang"
  },
  "schemaVersion": "3.4.7",
  "updatedAt": "2022-06-20T15:45:53.947Z",
  "networkType": "ethereum",
  "devdoc": {
    "kind": "dev",
    "methods": {},
    "version": 1
  },
  "userdoc": {
    "kind": "user",
    "methods": {},
    "version": 1
  }
}