{
  "contractName": "Termination1",
  "abi": [
    {
      "anonymous": false,
      "inputs": [
        {
          "indexed": false,
          "internalType": "string",
          "name": "f",
          "type": "string"
        }
      ],
      "name": "FunctionCalled",
      "type": "event"
    },
    {
      "inputs": [],
      "name": "assignBeforeTermination",
      "outputs": [],
      "stateMutability": "nonpayable",
      "type": "function"
    }
  ],
  "bytecode": "0x608080604052346100155760cb908161001b8239f35b600080fdfe6080806040526004361015601257600080fd5b600090813560e01c63f07b45a314602857600080fd5b346091578160031936011260915760608160207fac7c932dfed5a12f8cee69b87b1db28759f9abab0760d37031670980a55a21689352601760208201527f61737369676e4265666f72655465726d696e6174696f6e0000000000000000006040820152a1604051f35b5080fdfea26469706673582212208a08c88966084e0f5f796a5082ad59d7c0fbc6b59682243e4f4664917b3cd23964736f6c634300080e0033",
  "immutableReferences": {},
  "source": "// SPDX-License-Identifier: MIT\npragma solidity ^0.8.14;\n\ncontract Termination1 {\n    uint persistent_var;\n    event FunctionCalled(string f);\n\n    function assignBeforeTermination() public {\n        emit FunctionCalled(\"assignBeforeTermination\");\n        uint balance;\n        balance = 7919;\n        return;\n    }\n}\n",
  "sourcePath": "/Users/sergiuiacob/solidity-optimization-with-control-flow-graphs/truffle-project/contracts/termination1.sol",
  "compiler": {
    "name": "solc",
    "version": "0.8.14+commit.503dde7e.mod.Darwin.appleclang"
  },
  "schemaVersion": "3.4.7",
  "updatedAt": "2022-06-20T15:45:53.946Z",
  "networkType": "ethereum",
  "devdoc": {
    "kind": "dev",
    "methods": {},
    "version": 1
  },
  "userdoc": {
    "kind": "user",
    "methods": {},
    "version": 1
  }
}