{
  "contractName": "Termination5",
  "abi": [
    {
      "anonymous": false,
      "inputs": [],
      "name": "BalanceIsEmpty",
      "type": "event"
    },
    {
      "anonymous": false,
      "inputs": [
        {
          "indexed": false,
          "internalType": "string",
          "name": "f",
          "type": "string"
        }
      ],
      "name": "FunctionCalled",
      "type": "event"
    },
    {
      "inputs": [
        {
          "internalType": "uint256",
          "name": "x",
          "type": "uint256"
        }
      ],
      "name": "assignBeforeTermination",
      "outputs": [],
      "stateMutability": "nonpayable",
      "type": "function"
    },
    {
      "inputs": [
        {
          "internalType": "uint256",
          "name": "x",
          "type": "uint256"
        }
      ],
      "name": "f1",
      "outputs": [
        {
          "internalType": "bool",
          "name": "",
          "type": "bool"
        }
      ],
      "stateMutability": "pure",
      "type": "function",
      "constant": true
    },
    {
      "inputs": [
        {
          "internalType": "uint256",
          "name": "x",
          "type": "uint256"
        }
      ],
      "name": "f2",
      "outputs": [
        {
          "internalType": "uint256",
          "name": "",
          "type": "uint256"
        }
      ],
      "stateMutability": "pure",
      "type": "function",
      "constant": true
    }
  ],
  "bytecode": "0x60808060405234610016576101ab908161001c8239f35b600080fdfe6080604052600436101561001257600080fd5b6000803560e01c806319679c441461007d5780639adbf691146100615763bf3724af1461003e57600080fd5b3461005e57602061005661005136610099565b610149565b604051908152f35b80fd5b503461005e576020600a61007436610099565b11604051908152f35b503461005e5761009461008f36610099565b6100b0565b604051f35b60209060031901126100ab5760043590565b600080fd5b7fac7c932dfed5a12f8cee69b87b1db28759f9abab0760d37031670980a55a2168606060405160208152601760208201527f61737369676e4265666f72655465726d696e6174696f6e0000000000000000006040820152a16001600a82111461013d57507f757587e61c9ea391fd556c0cd9b59fb64ea23c21c63e92a104fac409fed380356000604051a1565b61014690610149565b50565b80600019046002118115151661015f5760011b90565b634e487b7160e01b600052601160045260246000fdfea2646970667358221220df1efe5c690d5c64e8291c5522406d5f4c087cd31e59afd48f56d876aa83c3bc64736f6c634300080e0033",
  "immutableReferences": {},
  "source": "// SPDX-License-Identifier: MIT\npragma solidity ^0.8.14;\n\n// unused assignment where value comes from function that doesn't change state\n\ncontract Termination5 {\n    uint persistent_var;\n    event FunctionCalled(string f);\n    event BalanceIsEmpty();\n\n    function assignBeforeTermination(uint x) public {\n        emit FunctionCalled(\"assignBeforeTermination\");\n        uint balance;\n        \n        if (f1(x) == true) {\n            balance = f2(x);\n            return;\n        }\n\n        if (balance == 0) {\n            emit BalanceIsEmpty();\n        }\n        return;\n    }\n\n    function f1(uint x) public pure returns (bool) {\n        return x > 10;\n    }\n\n    function f2(uint x) public pure returns (uint) {\n        return x * 2;\n    }\n}\n",
  "sourcePath": "/Users/sergiuiacob/solidity-optimization-with-control-flow-graphs/truffle-project/contracts/termination5.sol",
  "compiler": {
    "name": "solc",
    "version": "0.8.14+commit.503dde7e.mod.Darwin.appleclang"
  },
  "schemaVersion": "3.4.7",
  "updatedAt": "2022-06-20T15:45:53.952Z",
  "networkType": "ethereum",
  "devdoc": {
    "kind": "dev",
    "methods": {},
    "version": 1
  },
  "userdoc": {
    "kind": "user",
    "methods": {},
    "version": 1
  }
}