{
  "contractName": "Termination7",
  "abi": [
    {
      "anonymous": false,
      "inputs": [
        {
          "indexed": false,
          "internalType": "string",
          "name": "f",
          "type": "string"
        }
      ],
      "name": "FunctionCalled",
      "type": "event"
    },
    {
      "anonymous": false,
      "inputs": [
        {
          "indexed": false,
          "internalType": "string",
          "name": "f",
          "type": "string"
        }
      ],
      "name": "FunctionEnd",
      "type": "event"
    },
    {
      "inputs": [
        {
          "internalType": "uint256",
          "name": "x",
          "type": "uint256"
        }
      ],
      "name": "assignBeforeTermination",
      "outputs": [],
      "stateMutability": "nonpayable",
      "type": "function"
    },
    {
      "inputs": [
        {
          "internalType": "uint256",
          "name": "x",
          "type": "uint256"
        }
      ],
      "name": "f1",
      "outputs": [
        {
          "internalType": "bool",
          "name": "",
          "type": "bool"
        }
      ],
      "stateMutability": "pure",
      "type": "function",
      "constant": true
    }
  ],
  "bytecode": "0x6080806040523461001657610108908161001c8239f35b600080fdfe6080806040526004361015601257600080fd5b600090813560e01c90816319679c4414604f5750639adbf69114603457600080fd5b34604c576020600a60433660bc565b11604051908152f35b80fd5b90503460b85760607fac7c932dfed5a12f8cee69b87b1db28759f9abab0760d37031670980a55a21689160803660bc565b5060208152601760208201527f61737369676e4265666f72655465726d696e6174696f6e0000000000000000006040820152a1604051f35b5080fd5b602090600319011260cd5760043590565b600080fdfea264697066735822122024d596f19483a2e1eaeee89b3e34e636b3422c5264ff46b5dffbd1a7db170a8b64736f6c634300080e0033",
  "immutableReferences": {},
  "source": "// SPDX-License-Identifier: MIT\npragma solidity ^0.8.14;\n\n// cyclic assignments\n\ncontract Termination7 {\n    uint persistent_var;\n    event FunctionCalled(string f);\n    event FunctionEnd(string f);\n\n    function assignBeforeTermination(uint x) public {\n        emit FunctionCalled(\"assignBeforeTermination\");\n        uint a; uint b; uint c;\n        if (f1(x) == true) {\n            a = x;\n            b = a;\n            c = b;\n            a = c;\n            return;\n        }\n        return;\n    }\n\n    function f1(uint x) public pure returns (bool) {\n        return x > 10;\n    }\n}\n",
  "sourcePath": "/Users/sergiuiacob/solidity-optimization-with-control-flow-graphs/truffle-project/contracts/termination7.sol",
  "compiler": {
    "name": "solc",
    "version": "0.8.14+commit.503dde7e.mod.Darwin.appleclang"
  },
  "schemaVersion": "3.4.7",
  "updatedAt": "2022-06-20T15:45:53.954Z",
  "networkType": "ethereum",
  "devdoc": {
    "kind": "dev",
    "methods": {},
    "version": 1
  },
  "userdoc": {
    "kind": "user",
    "methods": {},
    "version": 1
  }
}